{
  "contractName": "Counter",
  "abi": [
    {
      "constant": true,
      "inputs": [],
      "name": "counter",
      "outputs": [
        {
          "internalType": "uint256",
          "name": "",
          "type": "uint256"
        }
      ],
      "payable": false,
      "stateMutability": "view",
      "type": "function"
    },
    {
      "constant": false,
      "inputs": [],
      "name": "inr",
      "outputs": [],
      "payable": false,
      "stateMutability": "nonpayable",
      "type": "function"
    },
    {
      "constant": false,
      "inputs": [],
      "name": "dec",
      "outputs": [],
      "payable": false,
      "stateMutability": "nonpayable",
      "type": "function"
    },
    {
      "constant": true,
      "inputs": [],
      "name": "count",
      "outputs": [
        {
          "internalType": "uint256",
          "name": "",
          "type": "uint256"
        }
      ],
      "payable": false,
      "stateMutability": "view",
      "type": "function"
    }
  ],
  "bytecode": "0x60806040526000805534801561001457600080fd5b5060cf806100236000396000f3fe6080604052348015600f57600080fd5b506004361060465760003560e01c806306661abd14604b5780633f27712f14606357806361bc221a14606b578063b3bcfa82146071575b600080fd5b60516077565b60408051918252519081900360200190f35b6069607d565b005b60516088565b6069608e565b60005490565b600080546001019055565b60005481565b6000805460001901905556fea265627a7a72315820d5579e46a78ddeb93470ca2e0437e7e2ebf40595b1be93a85b5307f68935b40c64736f6c63430005100032",
  "source": "// SPDX-License-Identifier: MIT\npragma solidity >=0.4.22 <0.9.0;\n\ncontract Counter {\n  \n uint public counter = 0;\n\n function inr() public{\n  counter ++;\n\n }\n\n function dec() public{\n  counter --;\n }\n\nfunction count()public view returns(uint){\n  return counter;\n}\n\n}\n ",
  "sourcePath": "/workspace/sol-dapp/contracts/Counter.sol",
  "compiler": {
    "name": "solc",
    "version": "0.5.16+commit.9c3226ce.Emscripten.clang"
  },
  "schemaVersion": "3.4.14",
  "updatedAt": "2023-07-21T16:17:23.604Z",
  "devdoc": {
    "methods": {}
  },
  "userdoc": {
    "methods": {}
  }
}